{
  "_format": "hh-sol-artifact-1",
  "contractName": "Upload",
  "sourceName": "contracts/Upload.sol",
  "abi": [
    {
      "inputs": [],
      "stateMutability": "nonpayable",
      "type": "constructor"
    },
    {
      "anonymous": false,
      "inputs": [
        {
          "indexed": true,
          "internalType": "address",
          "name": "owner",
          "type": "address"
        },
        {
          "indexed": true,
          "internalType": "address",
          "name": "approved",
          "type": "address"
        },
        {
          "indexed": true,
          "internalType": "uint256",
          "name": "tokenId",
          "type": "uint256"
        }
      ],
      "name": "Approval",
      "type": "event"
    },
    {
      "anonymous": false,
      "inputs": [
        {
          "indexed": true,
          "internalType": "address",
          "name": "owner",
          "type": "address"
        },
        {
          "indexed": true,
          "internalType": "address",
          "name": "operator",
          "type": "address"
        },
        {
          "indexed": false,
          "internalType": "bool",
          "name": "approved",
          "type": "bool"
        }
      ],
      "name": "ApprovalForAll",
      "type": "event"
    },
    {
      "anonymous": false,
      "inputs": [
        {
          "indexed": false,
          "internalType": "uint256",
          "name": "_fromTokenId",
          "type": "uint256"
        },
        {
          "indexed": false,
          "internalType": "uint256",
          "name": "_toTokenId",
          "type": "uint256"
        }
      ],
      "name": "BatchMetadataUpdate",
      "type": "event"
    },
    {
      "anonymous": false,
      "inputs": [
        {
          "indexed": false,
          "internalType": "uint256",
          "name": "_tokenId",
          "type": "uint256"
        }
      ],
      "name": "MetadataUpdate",
      "type": "event"
    },
    {
      "anonymous": false,
      "inputs": [
        {
          "indexed": true,
          "internalType": "address",
          "name": "from",
          "type": "address"
        },
        {
          "indexed": true,
          "internalType": "address",
          "name": "to",
          "type": "address"
        },
        {
          "indexed": true,
          "internalType": "uint256",
          "name": "tokenId",
          "type": "uint256"
        }
      ],
      "name": "Transfer",
      "type": "event"
    },
    {
      "inputs": [],
      "name": "_tokenIds",
      "outputs": [
        {
          "internalType": "uint256",
          "name": "_value",
          "type": "uint256"
        }
      ],
      "stateMutability": "view",
      "type": "function"
    },
    {
      "inputs": [
        {
          "internalType": "string",
          "name": "tokenURI",
          "type": "string"
        },
        {
          "internalType": "address",
          "name": "_reciever",
          "type": "address"
        },
        {
          "internalType": "address",
          "name": "_org",
          "type": "address"
        },
        {
          "internalType": "address",
          "name": "_user",
          "type": "address"
        }
      ],
      "name": "additem",
      "outputs": [
        {
          "internalType": "uint256",
          "name": "",
          "type": "uint256"
        }
      ],
      "stateMutability": "nonpayable",
      "type": "function"
    },
    {
      "inputs": [
        {
          "internalType": "address",
          "name": "to",
          "type": "address"
        },
        {
          "internalType": "uint256",
          "name": "tokenId",
          "type": "uint256"
        }
      ],
      "name": "approve",
      "outputs": [],
      "stateMutability": "nonpayable",
      "type": "function"
    },
    {
      "inputs": [
        {
          "internalType": "address",
          "name": "owner",
          "type": "address"
        }
      ],
      "name": "balanceOf",
      "outputs": [
        {
          "internalType": "uint256",
          "name": "",
          "type": "uint256"
        }
      ],
      "stateMutability": "view",
      "type": "function"
    },
    {
      "inputs": [
        {
          "internalType": "uint256",
          "name": "tokenId",
          "type": "uint256"
        },
        {
          "internalType": "address",
          "name": "remove",
          "type": "address"
        }
      ],
      "name": "cancelAccess",
      "outputs": [],
      "stateMutability": "nonpayable",
      "type": "function"
    },
    {
      "inputs": [
        {
          "internalType": "address",
          "name": "",
          "type": "address"
        },
        {
          "internalType": "uint256",
          "name": "",
          "type": "uint256"
        }
      ],
      "name": "certiList",
      "outputs": [
        {
          "internalType": "uint256",
          "name": "",
          "type": "uint256"
        }
      ],
      "stateMutability": "view",
      "type": "function"
    },
    {
      "inputs": [
        {
          "internalType": "uint256",
          "name": "tokenId",
          "type": "uint256"
        }
      ],
      "name": "getApproved",
      "outputs": [
        {
          "internalType": "address",
          "name": "",
          "type": "address"
        }
      ],
      "stateMutability": "view",
      "type": "function"
    },
    {
      "inputs": [
        {
          "internalType": "address",
          "name": "_user",
          "type": "address"
        }
      ],
      "name": "getallCerti",
      "outputs": [
        {
          "components": [
            {
              "internalType": "uint256",
              "name": "tokenId",
              "type": "uint256"
            },
            {
              "internalType": "address",
              "name": "owner",
              "type": "address"
            },
            {
              "internalType": "address",
              "name": "organization",
              "type": "address"
            },
            {
              "internalType": "address",
              "name": "employee",
              "type": "address"
            },
            {
              "internalType": "address[]",
              "name": "accesslist",
              "type": "address[]"
            },
            {
              "internalType": "bool",
              "name": "active",
              "type": "bool"
            }
          ],
          "internalType": "struct Upload.certificate[]",
          "name": "",
          "type": "tuple[]"
        }
      ],
      "stateMutability": "view",
      "type": "function"
    },
    {
      "inputs": [
        {
          "internalType": "uint256",
          "name": "tokenId",
          "type": "uint256"
        },
        {
          "internalType": "address",
          "name": "adder",
          "type": "address"
        }
      ],
      "name": "giveAccess",
      "outputs": [],
      "stateMutability": "nonpayable",
      "type": "function"
    },
    {
      "inputs": [
        {
          "internalType": "address",
          "name": "owner",
          "type": "address"
        },
        {
          "internalType": "address",
          "name": "operator",
          "type": "address"
        }
      ],
      "name": "isApprovedForAll",
      "outputs": [
        {
          "internalType": "bool",
          "name": "",
          "type": "bool"
        }
      ],
      "stateMutability": "view",
      "type": "function"
    },
    {
      "inputs": [
        {
          "internalType": "uint256",
          "name": "",
          "type": "uint256"
        }
      ],
      "name": "items",
      "outputs": [
        {
          "internalType": "uint256",
          "name": "tokenId",
          "type": "uint256"
        },
        {
          "internalType": "address",
          "name": "owner",
          "type": "address"
        },
        {
          "internalType": "address",
          "name": "organization",
          "type": "address"
        },
        {
          "internalType": "address",
          "name": "employee",
          "type": "address"
        },
        {
          "internalType": "bool",
          "name": "active",
          "type": "bool"
        }
      ],
      "stateMutability": "view",
      "type": "function"
    },
    {
      "inputs": [],
      "name": "name",
      "outputs": [
        {
          "internalType": "string",
          "name": "",
          "type": "string"
        }
      ],
      "stateMutability": "view",
      "type": "function"
    },
    {
      "inputs": [
        {
          "internalType": "uint256",
          "name": "tokenId",
          "type": "uint256"
        }
      ],
      "name": "ownerOf",
      "outputs": [
        {
          "internalType": "address",
          "name": "",
          "type": "address"
        }
      ],
      "stateMutability": "view",
      "type": "function"
    },
    {
      "inputs": [
        {
          "internalType": "address",
          "name": "",
          "type": "address"
        },
        {
          "internalType": "uint256",
          "name": "",
          "type": "uint256"
        }
      ],
      "name": "ownership",
      "outputs": [
        {
          "internalType": "bool",
          "name": "",
          "type": "bool"
        }
      ],
      "stateMutability": "view",
      "type": "function"
    },
    {
      "inputs": [
        {
          "internalType": "uint256",
          "name": "tokenId",
          "type": "uint256"
        }
      ],
      "name": "revokeCerti",
      "outputs": [],
      "stateMutability": "nonpayable",
      "type": "function"
    },
    {
      "inputs": [
        {
          "internalType": "address",
          "name": "from",
          "type": "address"
        },
        {
          "internalType": "address",
          "name": "to",
          "type": "address"
        },
        {
          "internalType": "uint256",
          "name": "tokenId",
          "type": "uint256"
        }
      ],
      "name": "safeTransferFrom",
      "outputs": [],
      "stateMutability": "nonpayable",
      "type": "function"
    },
    {
      "inputs": [
        {
          "internalType": "address",
          "name": "from",
          "type": "address"
        },
        {
          "internalType": "address",
          "name": "to",
          "type": "address"
        },
        {
          "internalType": "uint256",
          "name": "tokenId",
          "type": "uint256"
        },
        {
          "internalType": "bytes",
          "name": "data",
          "type": "bytes"
        }
      ],
      "name": "safeTransferFrom",
      "outputs": [],
      "stateMutability": "nonpayable",
      "type": "function"
    },
    {
      "inputs": [
        {
          "internalType": "address",
          "name": "operator",
          "type": "address"
        },
        {
          "internalType": "bool",
          "name": "approved",
          "type": "bool"
        }
      ],
      "name": "setApprovalForAll",
      "outputs": [],
      "stateMutability": "nonpayable",
      "type": "function"
    },
    {
      "inputs": [
        {
          "internalType": "bytes4",
          "name": "interfaceId",
          "type": "bytes4"
        }
      ],
      "name": "supportsInterface",
      "outputs": [
        {
          "internalType": "bool",
          "name": "",
          "type": "bool"
        }
      ],
      "stateMutability": "view",
      "type": "function"
    },
    {
      "inputs": [],
      "name": "symbol",
      "outputs": [
        {
          "internalType": "string",
          "name": "",
          "type": "string"
        }
      ],
      "stateMutability": "view",
      "type": "function"
    },
    {
      "inputs": [
        {
          "internalType": "uint256",
          "name": "tokenId",
          "type": "uint256"
        }
      ],
      "name": "tokenURI",
      "outputs": [
        {
          "internalType": "string",
          "name": "",
          "type": "string"
        }
      ],
      "stateMutability": "view",
      "type": "function"
    },
    {
      "inputs": [],
      "name": "tokens",
      "outputs": [
        {
          "internalType": "uint256",
          "name": "",
          "type": "uint256"
        }
      ],
      "stateMutability": "view",
      "type": "function"
    },
    {
      "inputs": [
        {
          "internalType": "address",
          "name": "from",
          "type": "address"
        },
        {
          "internalType": "address",
          "name": "to",
          "type": "address"
        },
        {
          "internalType": "uint256",
          "name": "tokenId",
          "type": "uint256"
        }
      ],
      "name": "transferFrom",
      "outputs": [],
      "stateMutability": "nonpayable",
      "type": "function"
    },
    {
      "inputs": [
        {
          "internalType": "uint256",
          "name": "tokenId",
          "type": "uint256"
        }
      ],
      "name": "viewCerti",
      "outputs": [
        {
          "components": [
            {
              "internalType": "uint256",
              "name": "tokenId",
              "type": "uint256"
            },
            {
              "internalType": "address",
              "name": "owner",
              "type": "address"
            },
            {
              "internalType": "address",
              "name": "organization",
              "type": "address"
            },
            {
              "internalType": "address",
              "name": "employee",
              "type": "address"
            },
            {
              "internalType": "address[]",
              "name": "accesslist",
              "type": "address[]"
            },
            {
              "internalType": "bool",
              "name": "active",
              "type": "bool"
            }
          ],
          "internalType": "struct Upload.certificate[]",
          "name": "",
          "type": "tuple[]"
        }
      ],
      "stateMutability": "view",
      "type": "function"
    }
  ],
  "bytecode": "0x60806040523480156200001157600080fd5b506040518060400160405280600e81526020017f4e46544d61726b6574706c6163650000000000000000000000000000000000008152506040518060400160405280600481526020017f4e46544d00000000000000000000000000000000000000000000000000000000815250816000908051906020019062000096929190620000b8565b508060019080519060200190620000af929190620000b8565b505050620001cd565b828054620000c69062000197565b90600052602060002090601f016020900481019282620000ea576000855562000136565b82601f106200010557805160ff191683800117855562000136565b8280016001018555821562000136579182015b828111156200013557825182559160200191906001019062000118565b5b50905062000145919062000149565b5090565b5b80821115620001645760008160009055506001016200014a565b5090565b7f4e487b7100000000000000000000000000000000000000000000000000000000600052602260045260246000fd5b60006002820490506001821680620001b057607f821691505b60208210811415620001c757620001c662000168565b5b50919050565b61407d80620001dd6000396000f3fe608060405234801561001057600080fd5b50600436106101585760003560e01c80639a821c40116100c3578063bbfa20581161007c578063bbfa2058146103e9578063bfb231d214610405578063c87b56dd14610439578063e985e9c514610469578063ee9bfc8c14610499578063ef01c11c146104c957610158565b80639a821c40146103155780639d63848a14610345578063a22cb46514610363578063a543ed6d1461037f578063aa46a400146103af578063b88d4fde146103cd57610158565b806342842e0e1161011557806342842e0e1461022f5780634a91ef091461024b5780636352211e1461027b5780636c414d4d146102ab57806370a08231146102c757806395d89b41146102f757610158565b806301ffc9a71461015d57806306fdde031461018d578063081812fc146101ab578063095ea7b3146101db578063156677f8146101f757806323b872dd14610213575b600080fd5b61017760048036038101906101729190612de0565b6104f9565b6040516101849190612e28565b60405180910390f35b61019561055a565b6040516101a29190612edc565b60405180910390f35b6101c560048036038101906101c09190612f34565b6105ec565b6040516101d29190612fa2565b60405180910390f35b6101f560048036038101906101f09190612fe9565b610632565b005b610211600480360381019061020c9190613029565b61074a565b005b61022d60048036038101906102289190613069565b6107b7565b005b61024960048036038101906102449190613069565b610817565b005b61026560048036038101906102609190612fe9565b610837565b60405161027291906130cb565b60405180910390f35b61029560048036038101906102909190612f34565b610868565b6040516102a29190612fa2565b60405180910390f35b6102c560048036038101906102c09190612f34565b6108ef565b005b6102e160048036038101906102dc91906130e6565b610921565b6040516102ee91906130cb565b60405180910390f35b6102ff6109d9565b60405161030c9190612edc565b60405180910390f35b61032f600480360381019061032a91906130e6565b610a6b565b60405161033c919061333a565b60405180910390f35b61034d610f53565b60405161035a91906130cb565b60405180910390f35b61037d60048036038101906103789190613388565b610f59565b005b61039960048036038101906103949190612f34565b610f6f565b6040516103a6919061333a565b60405180910390f35b6103b76111cb565b6040516103c491906130cb565b60405180910390f35b6103e760048036038101906103e291906134fd565b6111d7565b005b61040360048036038101906103fe9190613029565b611239565b005b61041f600480360381019061041a9190612f34565b611383565b604051610430959493929190613580565b60405180910390f35b610453600480360381019061044e9190612f34565b611426565b6040516104609190612edc565b60405180910390f35b610483600480360381019061047e91906135d3565b611539565b6040516104909190612e28565b60405180910390f35b6104b360048036038101906104ae9190612fe9565b6115cd565b6040516104c09190612e28565b60405180910390f35b6104e360048036038101906104de91906136b4565b6115fc565b6040516104f091906130cb565b60405180910390f35b6000634906490660e01b7bffffffffffffffffffffffffffffffffffffffffffffffffffffffff1916827bffffffffffffffffffffffffffffffffffffffffffffffffffffffff19161480610553575061055282611bc9565b5b9050919050565b60606000805461056990613766565b80601f016020809104026020016040519081016040528092919081815260200182805461059590613766565b80156105e25780601f106105b7576101008083540402835291602001916105e2565b820191906000526020600020905b8154815290600101906020018083116105c557829003601f168201915b5050505050905090565b60006105f782611cab565b6004600083815260200190815260200160002060009054906101000a900473ffffffffffffffffffffffffffffffffffffffff169050919050565b600061063d82610868565b90508073ffffffffffffffffffffffffffffffffffffffff168373ffffffffffffffffffffffffffffffffffffffff1614156106ae576040517f08c379a00000000000000000000000000000000000000000000000000000000081526004016106a59061380a565b60405180910390fd5b8073ffffffffffffffffffffffffffffffffffffffff166106cd611cf6565b73ffffffffffffffffffffffffffffffffffffffff1614806106fc57506106fb816106f6611cf6565b611539565b5b61073b576040517f08c379a00000000000000000000000000000000000000000000000000000000081526004016107329061389c565b60405180910390fd5b6107458383611cfe565b505050565b6000600b60008373ffffffffffffffffffffffffffffffffffffffff1673ffffffffffffffffffffffffffffffffffffffff168152602001908152602001600020600084815260200190815260200160002060006101000a81548160ff0219169083151502179055505050565b6107c86107c2611cf6565b82611db7565b610807576040517f08c379a00000000000000000000000000000000000000000000000000000000081526004016107fe9061392e565b60405180910390fd5b610812838383611e4c565b505050565b610832838383604051806020016040528060008152506111d7565b505050565b600a602052816000526040600020818154811061085357600080fd5b90600052602060002001600091509150505481565b60008061087483612146565b9050600073ffffffffffffffffffffffffffffffffffffffff168173ffffffffffffffffffffffffffffffffffffffff1614156108e6576040517f08c379a00000000000000000000000000000000000000000000000000000000081526004016108dd9061399a565b60405180910390fd5b80915050919050565b60006009600083815260200190815260200160002060050160006101000a81548160ff02191690831515021790555050565b60008073ffffffffffffffffffffffffffffffffffffffff168273ffffffffffffffffffffffffffffffffffffffff161415610992576040517f08c379a000000000000000000000000000000000000000000000000000000000815260040161098990613a2c565b60405180910390fd5b600360008373ffffffffffffffffffffffffffffffffffffffff1673ffffffffffffffffffffffffffffffffffffffff168152602001908152602001600020549050919050565b6060600180546109e890613766565b80601f0160208091040260200160405190810160405280929190818152602001828054610a1490613766565b8015610a615780601f10610a3657610100808354040283529160200191610a61565b820191906000526020600020905b815481529060010190602001808311610a4457829003601f168201915b5050505050905090565b6060600080600090505b600a60008573ffffffffffffffffffffffffffffffffffffffff1673ffffffffffffffffffffffffffffffffffffffff16815260200190815260200160002080549050811015610ba6576000600a60008673ffffffffffffffffffffffffffffffffffffffff1673ffffffffffffffffffffffffffffffffffffffff1681526020019081526020016000208281548110610b1257610b11613a4c565b5b90600052602060002001549050600b60008673ffffffffffffffffffffffffffffffffffffffff1673ffffffffffffffffffffffffffffffffffffffff168152602001908152602001600020600082815260200190815260200160002060009054906101000a900460ff1615610b9257600183610b8f9190613aaa565b92505b508080610b9e90613b00565b915050610a75565b5060008167ffffffffffffffff811115610bc357610bc26133d2565b5b604051908082528060200260200182016040528015610bfc57816020015b610be9612bcd565b815260200190600190039081610be15790505b509050600080600090505b600a60008773ffffffffffffffffffffffffffffffffffffffff1673ffffffffffffffffffffffffffffffffffffffff16815260200190815260200160002080549050811015610f47576000600a60008873ffffffffffffffffffffffffffffffffffffffff1673ffffffffffffffffffffffffffffffffffffffff1681526020019081526020016000208281548110610ca457610ca3613a4c565b5b90600052602060002001549050600b60008873ffffffffffffffffffffffffffffffffffffffff1673ffffffffffffffffffffffffffffffffffffffff168152602001908152602001600020600082815260200190815260200160002060009054906101000a900460ff1615610f335760006009600083815260200190815260200160002090508060050160009054906101000a900460ff1615610f3157806040518060c0016040529081600082015481526020016001820160009054906101000a900473ffffffffffffffffffffffffffffffffffffffff1673ffffffffffffffffffffffffffffffffffffffff1673ffffffffffffffffffffffffffffffffffffffff1681526020016002820160009054906101000a900473ffffffffffffffffffffffffffffffffffffffff1673ffffffffffffffffffffffffffffffffffffffff1673ffffffffffffffffffffffffffffffffffffffff1681526020016003820160009054906101000a900473ffffffffffffffffffffffffffffffffffffffff1673ffffffffffffffffffffffffffffffffffffffff1673ffffffffffffffffffffffffffffffffffffffff16815260200160048201805480602002602001604051908101604052809291908181526020018280548015610edf57602002820191906000526020600020905b8160009054906101000a900473ffffffffffffffffffffffffffffffffffffffff1673ffffffffffffffffffffffffffffffffffffffff1681526020019060010190808311610e95575b505050505081526020016005820160009054906101000a900460ff161515151581525050858581518110610f1657610f15613a4c565b5b6020026020010181905250600184610f2e9190613aaa565b93505b505b508080610f3f90613b00565b915050610c07565b50819350505050919050565b60085481565b610f6b610f64611cf6565b8383612183565b5050565b60606000600167ffffffffffffffff811115610f8e57610f8d6133d2565b5b604051908082528060200260200182016040528015610fc757816020015b610fb4612bcd565b815260200190600190039081610fac5790505b5090506000600960008581526020019081526020016000209050806040518060c0016040529081600082015481526020016001820160009054906101000a900473ffffffffffffffffffffffffffffffffffffffff1673ffffffffffffffffffffffffffffffffffffffff1673ffffffffffffffffffffffffffffffffffffffff1681526020016002820160009054906101000a900473ffffffffffffffffffffffffffffffffffffffff1673ffffffffffffffffffffffffffffffffffffffff1673ffffffffffffffffffffffffffffffffffffffff1681526020016003820160009054906101000a900473ffffffffffffffffffffffffffffffffffffffff1673ffffffffffffffffffffffffffffffffffffffff1673ffffffffffffffffffffffffffffffffffffffff1681526020016004820180548060200260200160405190810160405280929190818152602001828054801561117e57602002820191906000526020600020905b8160009054906101000a900473ffffffffffffffffffffffffffffffffffffffff1673ffffffffffffffffffffffffffffffffffffffff1681526020019060010190808311611134575b505050505081526020016005820160009054906101000a900460ff161515151581525050826000815181106111b6576111b5613a4c565b5b60200260200101819052508192505050919050565b60078060000154905081565b6111e86111e2611cf6565b83611db7565b611227576040517f08c379a000000000000000000000000000000000000000000000000000000000815260040161121e9061392e565b60405180910390fd5b611233848484846122f0565b50505050565b60096000838152602001908152602001600020600401819080600181540180825580915050600190039060005260206000200160009091909190916101000a81548173ffffffffffffffffffffffffffffffffffffffff021916908373ffffffffffffffffffffffffffffffffffffffff160217905550600a60008273ffffffffffffffffffffffffffffffffffffffff1673ffffffffffffffffffffffffffffffffffffffff1681526020019081526020016000208290806001815401808255809150506001900390600052602060002001600090919091909150556001600b60008373ffffffffffffffffffffffffffffffffffffffff1673ffffffffffffffffffffffffffffffffffffffff168152602001908152602001600020600084815260200190815260200160002060006101000a81548160ff0219169083151502179055505050565b60096020528060005260406000206000915090508060000154908060010160009054906101000a900473ffffffffffffffffffffffffffffffffffffffff16908060020160009054906101000a900473ffffffffffffffffffffffffffffffffffffffff16908060030160009054906101000a900473ffffffffffffffffffffffffffffffffffffffff16908060050160009054906101000a900460ff16905085565b606061143182611cab565b600060066000848152602001908152602001600020805461145190613766565b80601f016020809104026020016040519081016040528092919081815260200182805461147d90613766565b80156114ca5780601f1061149f576101008083540402835291602001916114ca565b820191906000526020600020905b8154815290600101906020018083116114ad57829003601f168201915b5050505050905060006114db61234c565b90506000815114156114f1578192505050611534565b60008251111561152657808260405160200161150e929190613b85565b60405160208183030381529060405292505050611534565b61152f84612363565b925050505b919050565b6000600560008473ffffffffffffffffffffffffffffffffffffffff1673ffffffffffffffffffffffffffffffffffffffff16815260200190815260200160002060008373ffffffffffffffffffffffffffffffffffffffff1673ffffffffffffffffffffffffffffffffffffffff16815260200190815260200160002060009054906101000a900460ff16905092915050565b600b6020528160005260406000206020528060005260406000206000915091509054906101000a900460ff1681565b60006001600860008282546116119190613aaa565b9250508190555061162260076123cb565b600061162e60076123e1565b905061163a83826123ef565b611644818761240d565b60606040518060c001604052808381526020018773ffffffffffffffffffffffffffffffffffffffff1681526020018673ffffffffffffffffffffffffffffffffffffffff1681526020018573ffffffffffffffffffffffffffffffffffffffff16815260200182815260200160011515815250600960008481526020019081526020016000206000820151816000015560208201518160010160006101000a81548173ffffffffffffffffffffffffffffffffffffffff021916908373ffffffffffffffffffffffffffffffffffffffff16021790555060408201518160020160006101000a81548173ffffffffffffffffffffffffffffffffffffffff021916908373ffffffffffffffffffffffffffffffffffffffff16021790555060608201518160030160006101000a81548173ffffffffffffffffffffffffffffffffffffffff021916908373ffffffffffffffffffffffffffffffffffffffff16021790555060808201518160040190805190602001906117c6929190612c47565b5060a08201518160050160006101000a81548160ff02191690831515021790555090505060096000838152602001908152602001600020600401869080600181540180825580915050600190039060005260206000200160009091909190916101000a81548173ffffffffffffffffffffffffffffffffffffffff021916908373ffffffffffffffffffffffffffffffffffffffff16021790555060096000838152602001908152602001600020600401859080600181540180825580915050600190039060005260206000200160009091909190916101000a81548173ffffffffffffffffffffffffffffffffffffffff021916908373ffffffffffffffffffffffffffffffffffffffff16021790555060096000838152602001908152602001600020600401849080600181540180825580915050600190039060005260206000200160009091909190916101000a81548173ffffffffffffffffffffffffffffffffffffffff021916908373ffffffffffffffffffffffffffffffffffffffff160217905550600a60008773ffffffffffffffffffffffffffffffffffffffff1673ffffffffffffffffffffffffffffffffffffffff168152602001908152602001600020829080600181540180825580915050600190039060005260206000200160009091909190915055600a60008673ffffffffffffffffffffffffffffffffffffffff1673ffffffffffffffffffffffffffffffffffffffff168152602001908152602001600020829080600181540180825580915050600190039060005260206000200160009091909190915055600a60008573ffffffffffffffffffffffffffffffffffffffff1673ffffffffffffffffffffffffffffffffffffffff1681526020019081526020016000208290806001815401808255809150506001900390600052602060002001600090919091909150556001600b60008873ffffffffffffffffffffffffffffffffffffffff1673ffffffffffffffffffffffffffffffffffffffff168152602001908152602001600020600084815260200190815260200160002060006101000a81548160ff0219169083151502179055506001600b60008773ffffffffffffffffffffffffffffffffffffffff1673ffffffffffffffffffffffffffffffffffffffff168152602001908152602001600020600084815260200190815260200160002060006101000a81548160ff0219169083151502179055506001600b60008673ffffffffffffffffffffffffffffffffffffffff1673ffffffffffffffffffffffffffffffffffffffff168152602001908152602001600020600084815260200190815260200160002060006101000a81548160ff0219169083151502179055508192505050949350505050565b60007f80ac58cd000000000000000000000000000000000000000000000000000000007bffffffffffffffffffffffffffffffffffffffffffffffffffffffff1916827bffffffffffffffffffffffffffffffffffffffffffffffffffffffff19161480611c9457507f5b5e139f000000000000000000000000000000000000000000000000000000007bffffffffffffffffffffffffffffffffffffffffffffffffffffffff1916827bffffffffffffffffffffffffffffffffffffffffffffffffffffffff1916145b80611ca45750611ca3826124b8565b5b9050919050565b611cb481612522565b611cf3576040517f08c379a0000000000000000000000000000000000000000000000000000000008152600401611cea9061399a565b60405180910390fd5b50565b600033905090565b816004600083815260200190815260200160002060006101000a81548173ffffffffffffffffffffffffffffffffffffffff021916908373ffffffffffffffffffffffffffffffffffffffff160217905550808273ffffffffffffffffffffffffffffffffffffffff16611d7183610868565b73ffffffffffffffffffffffffffffffffffffffff167f8c5be1e5ebec7d5bd14f71427d1e84f3dd0314c0f7b2291e5b200ac8c7c3b92560405160405180910390a45050565b600080611dc383610868565b90508073ffffffffffffffffffffffffffffffffffffffff168473ffffffffffffffffffffffffffffffffffffffff161480611e055750611e048185611539565b5b80611e4357508373ffffffffffffffffffffffffffffffffffffffff16611e2b846105ec565b73ffffffffffffffffffffffffffffffffffffffff16145b91505092915050565b8273ffffffffffffffffffffffffffffffffffffffff16611e6c82610868565b73ffffffffffffffffffffffffffffffffffffffff1614611ec2576040517f08c379a0000000000000000000000000000000000000000000000000000000008152600401611eb990613c1b565b60405180910390fd5b600073ffffffffffffffffffffffffffffffffffffffff168273ffffffffffffffffffffffffffffffffffffffff161415611f32576040517f08c379a0000000000000000000000000000000000000000000000000000000008152600401611f2990613cad565b60405180910390fd5b611f3f8383836001612563565b8273ffffffffffffffffffffffffffffffffffffffff16611f5f82610868565b73ffffffffffffffffffffffffffffffffffffffff1614611fb5576040517f08c379a0000000000000000000000000000000000000000000000000000000008152600401611fac90613c1b565b60405180910390fd5b6004600082815260200190815260200160002060006101000a81549073ffffffffffffffffffffffffffffffffffffffff02191690556001600360008573ffffffffffffffffffffffffffffffffffffffff1673ffffffffffffffffffffffffffffffffffffffff168152602001908152602001600020600082825403925050819055506001600360008473ffffffffffffffffffffffffffffffffffffffff1673ffffffffffffffffffffffffffffffffffffffff16815260200190815260200160002060008282540192505081905550816002600083815260200190815260200160002060006101000a81548173ffffffffffffffffffffffffffffffffffffffff021916908373ffffffffffffffffffffffffffffffffffffffff160217905550808273ffffffffffffffffffffffffffffffffffffffff168473ffffffffffffffffffffffffffffffffffffffff167fddf252ad1be2c89b69c2b068fc378daa952ba7f163c4a11628f55a4df523b3ef60405160405180910390a46121418383836001612569565b505050565b60006002600083815260200190815260200160002060009054906101000a900473ffffffffffffffffffffffffffffffffffffffff169050919050565b8173ffffffffffffffffffffffffffffffffffffffff168373ffffffffffffffffffffffffffffffffffffffff1614156121f2576040517f08c379a00000000000000000000000000000000000000000000000000000000081526004016121e990613d19565b60405180910390fd5b80600560008573ffffffffffffffffffffffffffffffffffffffff1673ffffffffffffffffffffffffffffffffffffffff16815260200190815260200160002060008473ffffffffffffffffffffffffffffffffffffffff1673ffffffffffffffffffffffffffffffffffffffff16815260200190815260200160002060006101000a81548160ff0219169083151502179055508173ffffffffffffffffffffffffffffffffffffffff168373ffffffffffffffffffffffffffffffffffffffff167f17307eab39ab6107e8899845ad3d59bd9653f200f220920489ca2b5937696c31836040516122e39190612e28565b60405180910390a3505050565b6122fb848484611e4c565b6123078484848461256f565b612346576040517f08c379a000000000000000000000000000000000000000000000000000000000815260040161233d90613dab565b60405180910390fd5b50505050565b606060405180602001604052806000815250905090565b606061236e82611cab565b600061237861234c565b9050600081511161239857604051806020016040528060008152506123c3565b806123a284612706565b6040516020016123b3929190613b85565b6040516020818303038152906040525b915050919050565b6001816000016000828254019250508190555050565b600081600001549050919050565b6124098282604051806020016040528060008152506127de565b5050565b61241682612522565b612455576040517f08c379a000000000000000000000000000000000000000000000000000000000815260040161244c90613e3d565b60405180910390fd5b8060066000848152602001908152602001600020908051906020019061247c929190612cd1565b507ff8e1a15aba9398e019f0b49df1a4fde98ee17ae345cb5f6b5e2c27f5033e8ce7826040516124ac91906130cb565b60405180910390a15050565b60007f01ffc9a7000000000000000000000000000000000000000000000000000000007bffffffffffffffffffffffffffffffffffffffffffffffffffffffff1916827bffffffffffffffffffffffffffffffffffffffffffffffffffffffff1916149050919050565b60008073ffffffffffffffffffffffffffffffffffffffff1661254483612146565b73ffffffffffffffffffffffffffffffffffffffff1614159050919050565b50505050565b50505050565b60006125908473ffffffffffffffffffffffffffffffffffffffff16612839565b156126f9578373ffffffffffffffffffffffffffffffffffffffff1663150b7a026125b9611cf6565b8786866040518563ffffffff1660e01b81526004016125db9493929190613eb2565b602060405180830381600087803b1580156125f557600080fd5b505af192505050801561262657506040513d601f19601f820116820180604052508101906126239190613f13565b60015b6126a9573d8060008114612656576040519150601f19603f3d011682016040523d82523d6000602084013e61265b565b606091505b506000815114156126a1576040517f08c379a000000000000000000000000000000000000000000000000000000000815260040161269890613dab565b60405180910390fd5b805181602001fd5b63150b7a0260e01b7bffffffffffffffffffffffffffffffffffffffffffffffffffffffff1916817bffffffffffffffffffffffffffffffffffffffffffffffffffffffff1916149150506126fe565b600190505b949350505050565b6060600060016127158461285c565b01905060008167ffffffffffffffff811115612734576127336133d2565b5b6040519080825280601f01601f1916602001820160405280156127665781602001600182028036833780820191505090505b509050600082602001820190505b6001156127d3578080600190039150507f3031323334353637383961626364656600000000000000000000000000000000600a86061a8153600a85816127bd576127bc613f40565b5b04945060008514156127ce576127d3565b612774565b819350505050919050565b6127e883836129af565b6127f5600084848461256f565b612834576040517f08c379a000000000000000000000000000000000000000000000000000000000815260040161282b90613dab565b60405180910390fd5b505050565b6000808273ffffffffffffffffffffffffffffffffffffffff163b119050919050565b600080600090507a184f03e93ff9f4daa797ed6e38ed64bf6a1f01000000000000000083106128ba577a184f03e93ff9f4daa797ed6e38ed64bf6a1f01000000000000000083816128b0576128af613f40565b5b0492506040810190505b6d04ee2d6d415b85acef810000000083106128f7576d04ee2d6d415b85acef810000000083816128ed576128ec613f40565b5b0492506020810190505b662386f26fc10000831061292657662386f26fc10000838161291c5761291b613f40565b5b0492506010810190505b6305f5e100831061294f576305f5e100838161294557612944613f40565b5b0492506008810190505b612710831061297457612710838161296a57612969613f40565b5b0492506004810190505b60648310612997576064838161298d5761298c613f40565b5b0492506002810190505b600a83106129a6576001810190505b80915050919050565b600073ffffffffffffffffffffffffffffffffffffffff168273ffffffffffffffffffffffffffffffffffffffff161415612a1f576040517f08c379a0000000000000000000000000000000000000000000000000000000008152600401612a1690613fbb565b60405180910390fd5b612a2881612522565b15612a68576040517f08c379a0000000000000000000000000000000000000000000000000000000008152600401612a5f90614027565b60405180910390fd5b612a76600083836001612563565b612a7f81612522565b15612abf576040517f08c379a0000000000000000000000000000000000000000000000000000000008152600401612ab690614027565b60405180910390fd5b6001600360008473ffffffffffffffffffffffffffffffffffffffff1673ffffffffffffffffffffffffffffffffffffffff16815260200190815260200160002060008282540192505081905550816002600083815260200190815260200160002060006101000a81548173ffffffffffffffffffffffffffffffffffffffff021916908373ffffffffffffffffffffffffffffffffffffffff160217905550808273ffffffffffffffffffffffffffffffffffffffff16600073ffffffffffffffffffffffffffffffffffffffff167fddf252ad1be2c89b69c2b068fc378daa952ba7f163c4a11628f55a4df523b3ef60405160405180910390a4612bc9600083836001612569565b5050565b6040518060c0016040528060008152602001600073ffffffffffffffffffffffffffffffffffffffff168152602001600073ffffffffffffffffffffffffffffffffffffffff168152602001600073ffffffffffffffffffffffffffffffffffffffff168152602001606081526020016000151581525090565b828054828255906000526020600020908101928215612cc0579160200282015b82811115612cbf5782518260006101000a81548173ffffffffffffffffffffffffffffffffffffffff021916908373ffffffffffffffffffffffffffffffffffffffff16021790555091602001919060010190612c67565b5b509050612ccd9190612d57565b5090565b828054612cdd90613766565b90600052602060002090601f016020900481019282612cff5760008555612d46565b82601f10612d1857805160ff1916838001178555612d46565b82800160010185558215612d46579182015b82811115612d45578251825591602001919060010190612d2a565b5b509050612d539190612d57565b5090565b5b80821115612d70576000816000905550600101612d58565b5090565b6000604051905090565b600080fd5b600080fd5b60007fffffffff0000000000000000000000000000000000000000000000000000000082169050919050565b612dbd81612d88565b8114612dc857600080fd5b50565b600081359050612dda81612db4565b92915050565b600060208284031215612df657612df5612d7e565b5b6000612e0484828501612dcb565b91505092915050565b60008115159050919050565b612e2281612e0d565b82525050565b6000602082019050612e3d6000830184612e19565b92915050565b600081519050919050565b600082825260208201905092915050565b60005b83811015612e7d578082015181840152602081019050612e62565b83811115612e8c576000848401525b50505050565b6000601f19601f8301169050919050565b6000612eae82612e43565b612eb88185612e4e565b9350612ec8818560208601612e5f565b612ed181612e92565b840191505092915050565b60006020820190508181036000830152612ef68184612ea3565b905092915050565b6000819050919050565b612f1181612efe565b8114612f1c57600080fd5b50565b600081359050612f2e81612f08565b92915050565b600060208284031215612f4a57612f49612d7e565b5b6000612f5884828501612f1f565b91505092915050565b600073ffffffffffffffffffffffffffffffffffffffff82169050919050565b6000612f8c82612f61565b9050919050565b612f9c81612f81565b82525050565b6000602082019050612fb76000830184612f93565b92915050565b612fc681612f81565b8114612fd157600080fd5b50565b600081359050612fe381612fbd565b92915050565b6000806040838503121561300057612fff612d7e565b5b600061300e85828601612fd4565b925050602061301f85828601612f1f565b9150509250929050565b600080604083850312156130405761303f612d7e565b5b600061304e85828601612f1f565b925050602061305f85828601612fd4565b9150509250929050565b60008060006060848603121561308257613081612d7e565b5b600061309086828701612fd4565b93505060206130a186828701612fd4565b92505060406130b286828701612f1f565b9150509250925092565b6130c581612efe565b82525050565b60006020820190506130e060008301846130bc565b92915050565b6000602082840312156130fc576130fb612d7e565b5b600061310a84828501612fd4565b91505092915050565b600081519050919050565b600082825260208201905092915050565b6000819050602082019050919050565b61314881612efe565b82525050565b61315781612f81565b82525050565b600081519050919050565b600082825260208201905092915050565b6000819050602082019050919050565b6000613195838361314e565b60208301905092915050565b6000602082019050919050565b60006131b98261315d565b6131c38185613168565b93506131ce83613179565b8060005b838110156131ff5781516131e68882613189565b97506131f1836131a1565b9250506001810190506131d2565b5085935050505092915050565b61321581612e0d565b82525050565b600060c083016000830151613233600086018261313f565b506020830151613246602086018261314e565b506040830151613259604086018261314e565b50606083015161326c606086018261314e565b506080830151848203608086015261328482826131ae565b91505060a083015161329960a086018261320c565b508091505092915050565b60006132b0838361321b565b905092915050565b6000602082019050919050565b60006132d082613113565b6132da818561311e565b9350836020820285016132ec8561312f565b8060005b85811015613328578484038952815161330985826132a4565b9450613314836132b8565b925060208a019950506001810190506132f0565b50829750879550505050505092915050565b6000602082019050818103600083015261335481846132c5565b905092915050565b61336581612e0d565b811461337057600080fd5b50565b6000813590506133828161335c565b92915050565b6000806040838503121561339f5761339e612d7e565b5b60006133ad85828601612fd4565b92505060206133be85828601613373565b9150509250929050565b600080fd5b600080fd5b7f4e487b7100000000000000000000000000000000000000000000000000000000600052604160045260246000fd5b61340a82612e92565b810181811067ffffffffffffffff82111715613429576134286133d2565b5b80604052505050565b600061343c612d74565b90506134488282613401565b919050565b600067ffffffffffffffff821115613468576134676133d2565b5b61347182612e92565b9050602081019050919050565b82818337600083830152505050565b60006134a061349b8461344d565b613432565b9050828152602081018484840111156134bc576134bb6133cd565b5b6134c784828561347e565b509392505050565b600082601f8301126134e4576134e36133c8565b5b81356134f484826020860161348d565b91505092915050565b6000806000806080858703121561351757613516612d7e565b5b600061352587828801612fd4565b945050602061353687828801612fd4565b935050604061354787828801612f1f565b925050606085013567ffffffffffffffff81111561356857613567612d83565b5b613574878288016134cf565b91505092959194509250565b600060a08201905061359560008301886130bc565b6135a26020830187612f93565b6135af6040830186612f93565b6135bc6060830185612f93565b6135c96080830184612e19565b9695505050505050565b600080604083850312156135ea576135e9612d7e565b5b60006135f885828601612fd4565b925050602061360985828601612fd4565b9150509250929050565b600067ffffffffffffffff82111561362e5761362d6133d2565b5b61363782612e92565b9050602081019050919050565b600061365761365284613613565b613432565b905082815260208101848484011115613673576136726133cd565b5b61367e84828561347e565b509392505050565b600082601f83011261369b5761369a6133c8565b5b81356136ab848260208601613644565b91505092915050565b600080600080608085870312156136ce576136cd612d7e565b5b600085013567ffffffffffffffff8111156136ec576136eb612d83565b5b6136f887828801613686565b945050602061370987828801612fd4565b935050604061371a87828801612fd4565b925050606061372b87828801612fd4565b91505092959194509250565b7f4e487b7100000000000000000000000000000000000000000000000000000000600052602260045260246000fd5b6000600282049050600182168061377e57607f821691505b6020821081141561379257613791613737565b5b50919050565b7f4552433732313a20617070726f76616c20746f2063757272656e74206f776e6560008201527f7200000000000000000000000000000000000000000000000000000000000000602082015250565b60006137f4602183612e4e565b91506137ff82613798565b604082019050919050565b60006020820190508181036000830152613823816137e7565b9050919050565b7f4552433732313a20617070726f76652063616c6c6572206973206e6f7420746f60008201527f6b656e206f776e6572206f7220617070726f76656420666f7220616c6c000000602082015250565b6000613886603d83612e4e565b91506138918261382a565b604082019050919050565b600060208201905081810360008301526138b581613879565b9050919050565b7f4552433732313a2063616c6c6572206973206e6f7420746f6b656e206f776e6560008201527f72206f7220617070726f76656400000000000000000000000000000000000000602082015250565b6000613918602d83612e4e565b9150613923826138bc565b604082019050919050565b600060208201905081810360008301526139478161390b565b9050919050565b7f4552433732313a20696e76616c696420746f6b656e2049440000000000000000600082015250565b6000613984601883612e4e565b915061398f8261394e565b602082019050919050565b600060208201905081810360008301526139b381613977565b9050919050565b7f4552433732313a2061646472657373207a65726f206973206e6f74206120766160008201527f6c6964206f776e65720000000000000000000000000000000000000000000000602082015250565b6000613a16602983612e4e565b9150613a21826139ba565b604082019050919050565b60006020820190508181036000830152613a4581613a09565b9050919050565b7f4e487b7100000000000000000000000000000000000000000000000000000000600052603260045260246000fd5b7f4e487b7100000000000000000000000000000000000000000000000000000000600052601160045260246000fd5b6000613ab582612efe565b9150613ac083612efe565b9250827fffffffffffffffffffffffffffffffffffffffffffffffffffffffffffffffff03821115613af557613af4613a7b565b5b828201905092915050565b6000613b0b82612efe565b91507fffffffffffffffffffffffffffffffffffffffffffffffffffffffffffffffff821415613b3e57613b3d613a7b565b5b600182019050919050565b600081905092915050565b6000613b5f82612e43565b613b698185613b49565b9350613b79818560208601612e5f565b80840191505092915050565b6000613b918285613b54565b9150613b9d8284613b54565b91508190509392505050565b7f4552433732313a207472616e736665722066726f6d20696e636f72726563742060008201527f6f776e6572000000000000000000000000000000000000000000000000000000602082015250565b6000613c05602583612e4e565b9150613c1082613ba9565b604082019050919050565b60006020820190508181036000830152613c3481613bf8565b9050919050565b7f4552433732313a207472616e7366657220746f20746865207a65726f2061646460008201527f7265737300000000000000000000000000000000000000000000000000000000602082015250565b6000613c97602483612e4e565b9150613ca282613c3b565b604082019050919050565b60006020820190508181036000830152613cc681613c8a565b9050919050565b7f4552433732313a20617070726f766520746f2063616c6c657200000000000000600082015250565b6000613d03601983612e4e565b9150613d0e82613ccd565b602082019050919050565b60006020820190508181036000830152613d3281613cf6565b9050919050565b7f4552433732313a207472616e7366657220746f206e6f6e20455243373231526560008201527f63656976657220696d706c656d656e7465720000000000000000000000000000602082015250565b6000613d95603283612e4e565b9150613da082613d39565b604082019050919050565b60006020820190508181036000830152613dc481613d88565b9050919050565b7f45524337323155524953746f726167653a2055524920736574206f66206e6f6e60008201527f6578697374656e7420746f6b656e000000000000000000000000000000000000602082015250565b6000613e27602e83612e4e565b9150613e3282613dcb565b604082019050919050565b60006020820190508181036000830152613e5681613e1a565b9050919050565b600081519050919050565b600082825260208201905092915050565b6000613e8482613e5d565b613e8e8185613e68565b9350613e9e818560208601612e5f565b613ea781612e92565b840191505092915050565b6000608082019050613ec76000830187612f93565b613ed46020830186612f93565b613ee160408301856130bc565b8181036060830152613ef38184613e79565b905095945050505050565b600081519050613f0d81612db4565b92915050565b600060208284031215613f2957613f28612d7e565b5b6000613f3784828501613efe565b91505092915050565b7f4e487b7100000000000000000000000000000000000000000000000000000000600052601260045260246000fd5b7f4552433732313a206d696e7420746f20746865207a65726f2061646472657373600082015250565b6000613fa5602083612e4e565b9150613fb082613f6f565b602082019050919050565b60006020820190508181036000830152613fd481613f98565b9050919050565b7f4552433732313a20746f6b656e20616c7265616479206d696e74656400000000600082015250565b6000614011601c83612e4e565b915061401c82613fdb565b602082019050919050565b6000602082019050818103600083015261404081614004565b905091905056fea26469706673582212204e475c051855e1a63d122eb8a621db9a8a78bf869f964c3977be941fd70f333a64736f6c63430008090033",
  "linkReferences": {},
  "deployedLinkReferences": {}
}